:1000000000800020ED010000750E0000750E00005C
:10001000750E0000750E0000750E0000750E0000D4
:10002000750E0000750E0000750E0000750E0000C4
:10003000750E0000750E0000750E0000750E0000B4
:10004000750E0000750E0000750E0000750E0000A4
:10005000750E0000750E0000750E0000750E000094
:10006000750E0000750E0000750E0000750E000084
:10007000750E0000750E0000750E0000750E000074
:10008000750E0000750E0000750E0000750E000064
:10009000750E0000750E0000750E0000750E000054
:1000A000750E0000750E0000750E0000750E000044
:1000B000750E0000750E0000750E0000750E000034
:1000C00080B51448144B21E05C689968DD688C4267
:1000D0000CD0002205E0A6180832D6E9008941E9D3
:1000E00002898C460831AA42F5D101E004EB050CE7
:1000F0001C696146002204E008320026002741E91D
:1001000002670831A242F7D1143301380028DBD14D
:1001100000F098FE01000000840F000048F2181360
:10012000C1F6FF731A780AB901201870704700BF32
:1001300048F20010C1F6FF7008B503682BB140F219
:100140000003C0F2000303B1984708BD80B582B038
:1001500000AF4FF00003FB7100F08EF94FF000008C
:100160004FF0000100F09EF940F6C860C0F20000B8
:1001700000F0D2F94FF0020000F004FBBB79002B35
:100180000FD0FB7903F10103FB7197F90730412B85
:1001900017DD4FF00003BB71FB7903F1FF33FB71F7
:1001A00010E0FB7903F1FF33FB7197F90730002B67
:1001B00008DC4FF00103BB71FB7903F10103FB7114
:1001C00000E000BF4FF001004FF0000100F06AF9BD
:1001D000FB79184600F0B4FAFB794FF001004FF0BC
:1001E00003014FF00D0200F087F8C3E7054B1C78C0
:1001F00044F001041C70044B1A78D2B2034B1A70FD
:10020000FFF75EFFE8460040FA460040BC7600403B
:1002100080B582B000AF4EF60C53CEF2000340F230
:100220000042C0F2FA521A604EF61453CEF20003A6
:100230004EF61452CEF20002126842F400721A60B6
:100240004FF000037B6014E07A687B684FEA83011B
:1002500040F20003C0F200030B441B68194648F249
:100260000003C1F6FF7343F822107B6803F101031A
:100270007B607B682F2BE7D947F2BC63C4F2000395
:100280001B78DAB248F21B13C1F6FF731A704EF6F0
:100290000853CEF2000348F20002C1F6FF721A6062
:1002A00000F0B6FB07F10807BD4680BD80B584B0FD
:1002B00000AF786000F0A2F94FF0400000F07CF948
:1002C0004FF00003FB730AE0FA7B7B6813441B7852
:1002D000184600F04FF9FB7B03F10103FB73FB7B36
:1002E0003F2BF1D900F08AF94FF0800000F064F95B
:1002F00007F11007BD4680BD80B584B000AFF8712E
:10030000B9717A713B713A794CF6CD43CCF6CC4356
:10031000A3FB02134FEA9303BB733A794CF6CD4328
:10032000CCF6CC43A3FB02134FEA93010B464FEAF2
:1003300083030B44C3EB0203FB73BA7B7B799A42C2
:1003400001D37B79BB73FA79BB791046194600F06B
:10035000A9F84FF000037B7307E04FF0050000F0B1
:1003600009F97B7B03F101037B737A7BBB7B9A42A8
:10037000F3D3BA7B7B799A421ED2FB7B184600F0FE
:10038000F9F8BA7B7B7903F1FF339A4214D24FF02C
:1003900000037B7307E04FF0000000F0EBF87B7B7D
:1003A00003F101037B737A7B7979BB7BC3EB010398
:1003B00003F1FF339A42EED307F11007BD4680BD2B
:1003C00080B500AF4FF0280000F0DCF94FF00300DB
:1003D00000F070F94FF0050000F0D4F94FF0030081
:1003E00000F068F94FF00F0000F0CCF94FF0030077
:1003F00000F060F94FF0010000F0C4F94FF0020086
:1004000000F058F94FF0050000F0BCF94FF006007D
:1004100000F0D2F84FF00E0000F0CEF84FF02C00B4
:1004200000F0CAF84FF0080000F0C6F84FF00100E5
:1004300000F0C2F84FF00C0000F0BEF84FF00300DF
:1004400000F0BAF84FF0050000F09CF940F6D860D3
:10045000C0F20000FFF72AFF80BD00BF80B500AFEB
:100460004FF00C0000F0A8F848F21913C1F6FF7322
:100470004FF001021A7080BD80B500AF48F21A1328
:10048000C1F6FF731B78002B08D1FFF799FF48F2E4
:100490001A13C1F6FF734FF001021A70FFF7DEFF67
:1004A00080BD00BF80B582B000AF02460B46FA7136
:1004B000BB71FB79032B2AD801A252F823F000BFAD
:1004C000D1040000E1040000F10400000105000077
:1004D000BB79A3F18003DBB2184600F06DF816E09B
:1004E000BB79A3F14003DBB2184600F065F80EE0DB
:1004F000BB79A3F16C03DBB2184600F05DF806E0AF
:10050000BB79A3F12C03DBB2184600F055F807F1D4
:100510000807BD4680BD00BF80B584B000AF7860DD
:100520004FF00103BB737B681B78FB730CE0FB7B14
:10053000184600F01FF8BA7B7B6813441B78FB73E6
:10054000BB7B03F10103BB73FB7B002BEFD107F1F6
:100550001007BD4680BD00BF80B582B000AF034626
:10056000FB71FB79184600F005F807F10807BD4656
:1005700080BD00BF80B584B000AF0346FB71FB793E
:100580004FEA1313FB73FB7B184600F03FF84FF064
:10059000640000F01BF9FB7903F00F03FB73FB7B96
:1005A000184600F033F84FF0960000F00FF907F10D
:1005B0001007BD4680BD00BF80B584B000AF0346C4
:1005C000FB71FB794FEA1313FB73FB7B184600F0BA
:1005D00071F84FF0640000F0F9F8FB7903F00F03B5
:1005E000FB73FB7B184600F065F840F2DC5000F02E
:1005F000EDF807F11007BD4680BD00BF80B500AF24
:100600004FF0010000F0BEF880BD00BF80B582B0A1
:1006100000AF0346FB7146F27943C4F2000346F291
:100620007942C4F200021278D2B242F02002D2B271
:100630001A7046F27943C4F2000346F27942C4F2DA
:1006400000021278D2B202F0BF021A7046F2794369
:10065000C4F2000346F27942C4F200021278D2B228
:1006600002F0F0021A7046F27943C4F2000346F237
:100670007942C4F200021278D1B2FA7941EA020258
:10068000D2B242F01002D2B21A704FF0010000F064
:100690009DF846F27943C4F2000346F27942C4F26F
:1006A00000021278D2B202F0EF021A7007F10807C6
:1006B000BD4680BD80B582B000AF0346FB7146F2F7
:1006C0007943C4F2000346F27942C4F20002127880
:1006D000D2B202F09F021A7046F27943C4F20003CC
:1006E00046F27942C4F200021278D2B202F0F0026D
:1006F0001A7046F27943C4F2000346F27942C4F21A
:1007000000021278D1B2FA7941EA0202D2B242F082
:100710001002D2B21A704FF0010000F057F846F202
:100720007943C4F2000346F27942C4F2000212781F
:10073000D2B202F0EF021A7007F10807BD4680BD81
:1007400080B582B000AF0346FB71FB794FEA13130B
:10075000DBB21A4640F61873C0F200039B5C1846E1
:10076000FFF7FAFEFB7903F00F0240F61873C0F2B0
:1007700000039B5C1846FFF7EFFE07F10807BD4634
:1007800080BD00BF80B582B000AF78600BE048F25A
:100790001013C1F6FF731B68184600F011FA7B684E
:1007A000A3F500437B607B68B3F5004FEFD848F2B8
:1007B0000813C1F6FF731B687A6802FB03F318463F
:1007C00000F0FEF907F10807BD4680BD80B582B094
:1007D00000AF0346FB80FA8848F20C13C1F6FF73A2
:1007E0001B7803FB02F3184600F0EAF907F108074B
:1007F000BD4680BD80B582B000AF78603960786852
:100800004FF000013A6800F0B3FA07F10807BD465F
:1008100080BD00BF80B584B000AFF860B9607A6079
:10082000F868B9687A6800F0DBF907F11007BD468F
:1008300080BD00BF80B487B000AF786039604FF0F2
:100840000003FB604FF00003BB602CE0BB684FEA85
:1008500083027B6813441B683B613B69FB753B6902
:1008600023F0FF033B6117E0FB684FEA43023B685C
:1008700013441B781A463B691344FA684FEA420155
:100880003A680A4452781A70FB6803F10103FB606E
:10089000FB7D03F1FF33FB75FB7D002BE4D1BB68CF
:1008A00003F10103BB60BB68072BCFD907F11C071D
:1008B000BD4680BC704700BF80B582B000AF44F237
:1008C0000033C4F200034FF002021A7044F2000336
:1008D000C4F200034FF008021A7044F20023C4F27D
:1008E00000034FF003021A7044F2A163C4F2000344
:1008F00040F20812C4F600121278D2B21A7044F212
:100900002223C4F200034FF008021A8044F220238D
:10091000C4F2000341F251021A804FF00003FB7150
:100920004FF019033B6019E0FB794FEA4303DAB259
:1009300044F22523C4F200031B78DBB203F0010369
:1009400042EA0303DBB203F00303FB714FF07800CC
:1009500000F036F93B6803F1FF333B603B68002B46
:1009600002D0FB79032BDFD144F20403C4F200036D
:100970004FF480721A8044F20403C4F200034FF073
:1009800007021A7044F20603C4F200034FF000029B
:100990001A7044F20803C4F200034FF048021A70C0
:1009A00044F20403C4F200034FF000021A7044F250
:1009B0000103C4F200034FF002021A7007F10807A6
:1009C000BD4680BD80B483B000AF40F2CF13C4F603
:1009D00000131B78FB7145F66E03C4F20003FA792D
:1009E00002F007021A7045F66F03C4F20003FA79A9
:1009F0004FEA1212D2B21A7045F67603C4F200031F
:100A00004FF044021A7007F10C07BD4680BC7047D6
:100A100080B582B000AF72B644F60003C4F20003A2
:100A20004FF001021A70FFF747FF44F60003C4F2CB
:100A300000036FF07E021A7044F2E863C4F2000310
:100A400044F2E862C4F200021278D2B242F0040228
:100A5000D2B21A704FF00003FB702FE0FA78134601
:100A60004FEA430313444FEA43031A4640F6287300
:100A7000C0F2000313447B607B681A7859784FEA10
:100A8000012141EA020299784FEA014141EA02025A
:100A9000DB784FEA036343EA02031A467B6819795D
:100AA0005B794FEA032343EA01039BB210461946E0
:100AB000FFF7A0FEFB7803F10103FB70FB78082B26
:100AC000CCD94FF0904040F22001C4F60001FFF76E
:100AD000B1FE45F20303C4F2010345F20302C4F27E
:100AE00001021278D2B242F00202D2B21A7045F27A
:100AF0001303C4F2010345F21302C4F20102127897
:100B0000D2B242F00202D2B21A7044F2A033C4F25E
:100B1000000344F2A032C4F200021278D2B242F0D2
:100B20004002D2B21A7044F2C233C4F2000344F25B
:100B3000C232C4F200021278D2B242F01002D2B233
:100B40001A7045F21210C4F2000040F27001C4F6AF
:100B500000014FF00802FFF75DFE45F22210C4F2DB
:100B6000000040F27801C4F600014FF00802FFF7E0
:100B700051FE44F22233C4F2000344F22232C4F2A2
:100B800000021278D2B242F00802D2B21A7040F2D9
:100B90000403C4F208034FF001021A70FFF712FFBA
:100BA00044F2B030C4F2000044F2A031C4F20001BB
:100BB0004FF00E02FFF72EFE07F10807BD4680BD7D
:100BC0000230800803D000BF01380046FCD17047D6
:100BD000EFF3108072B6704780F31088704700BF43
:100BE000032A2DE9F0070BD83AB1002311F803C00E
:100BF00000F803C001339342F8D1BDE8F007704715
:100C000082180C46034603E014F8011C03F8011C8B
:100C100003F003061946A44601330134002EF3D134
:100C20001CF00304634608BFC1EB020C68D06542A8
:100C3000C4F1040A0CEB050733464FEACA0A5CF814
:100C400005604FEAC408551A08E057F8044F2646D5
:100C500004FA0AF449EA0404CC5004335C18032D66
:100C600026FA08F9A5F104050CEB0306EDDC0023D8
:100C700002E0F15CE154013319199142F9D3BCE768
:100C800053F8404C41F8404C53F83C4C41F83C4C34
:100C900053F8384C41F8384C53F8344C41F8344C44
:100CA00053F8304C41F8304C53F82C4C41F82C4C54
:100CB00053F8284C41F8284C53F8244C41F8244C64
:100CC00053F8204C41F8204C53F81C4C41F81C4C74
:100CD00053F8184C41F8184C53F8144C41F8144C84
:100CE00053F8104C41F8104C53F80C4C41F80C4C94
:100CF00053F8084C41F8084C53F8044C41F8044CA4
:100D00001C460D4640334031BCF13F0FACF1400C66
:100D1000B6DC21462B46541B0FE051F8105C43F81B
:100D2000105C51F80C5C43F80C5C51F8085C43F81B
:100D3000085C51F8045C43F8045C0F2C0D469C469B
:100D400001F1100103F11003A4F11004E5DCCCEB78
:100D50000201002303E0EC584CF8034004335E1911
:100D6000032903EB0C04A1F10401F4DC7FE700BFCD
:100D7000032AC9B230B407D822B10023C1540133C9
:100D80009342FBD130BC704700EB020C034601E0FC
:100D900003F8011C03F003041A460133002CF7D1B9
:100DA0004FF00133C2EB0C0403FB01F31FE042F8E8
:100DB000403C42F83C3C42F8383C42F8343C42F873
:100DC000303C42F82C3C42F8283C42F8243C42F8A3
:100DD000203C42F81C3C42F8183C42F8143C42F8D3
:100DE000103C42F80C3C42F8083C42F8043C1546E2
:100DF00040323F2CA4F14004D9DC2A46C5EB0C0458
:100E000007E042F8103C42F80C3C42F8083C42F83B
:100E1000043C154610320F2CA4F11004F1DC2A46D4
:100E2000C5EB0C0501E042F8043C14460432032DE6
:100E3000A5F10405F7DC01E004F8011B6445FBD3D0
:100E4000A0E700BF08B500F017F8074800B1006838
:100E5000064901B109680022FFF778F9044B0BB18C
:100E6000AFF30080FEE700BF0000000000000000BC
:100E700000000000FEE7000070B540F66C7640F61A
:100E80006C75C0F20006C0F20005761BB61006D0E5
:100E9000002455F8243001349847A642F9D840F68A
:100EA0006C7540F67476C0F20005C0F20006761B41
:100EB00000F056F8B61006D0002455F8243001345E
:080EC0009847A642F9D870BD65
:100EC8004D756C74692D506F7274204C434400004A
:100ED800000000000000000010101010101010108A
:100EE80018181818181818181C1C1C1C1C1C1C1C5A
:100EF8001E1E1E1E1E1E1E1E1F1F1F1F1F1F1F1F02
:100F080000000000000000000000000000000000D9
:100F18003031323334353637383941424344454627
:100F2800005100401000305100404000C0510040C6
:100F38001000F051004010000000014000100014A3
:100F48000140000800400140000A004C0140000236
:100F58000050014020000000F8B500BFF8BC08BCF4
:100F68009E4670473101000011020000F8B500BF2D
:100F7800F8BC08BC9E4670471D0100000000000038
:100F8800980F00000080FF1F1801000008000000F3
:100F98000000000000000000000000000000000049
:100FA8000000000000000000000000000000000039
:100FB8000000000000000000000000000000000029
:100FC8000000000000000000000000000000000019
:100FD8000000000000000000000000000000000009
:100FE80000000000000000000000000000000000F9
:100FF80000000000000000000000000000000000E9
:1010080000000000000000000000000000000000D8
:1010180000000000000000000000000000000000C8
:1010280000000000000000000000000000000000B8
:1010380000000000000000000000000000000000A8
:101048000000000000000000000000000000000098
:101058000000000000000000000000000000000088
:101068000000000000000000000000000000000078
:101078000000000000000000000000000000000068
:101088000000000000000000000000000000000058
:101098000000000000366E01C05D0000180000006E
:0810A8000000E02E0000000032
:04000003000001ED0B
:00000001FF
