:100000000205EA008F828E83E0540100000070F840
:100010002278FFE4F6D8FD020648BB010689828AF1
:1000200083E0225002E722BBFE02E32289828A8318
:10003000E49322BB010689828A83F0225002F722D0
:10004000BBFE01F322BC000BBE0029EF8DF084FF44
:10005000ADF022E4CCF875F008EF2FFFEE33FEECA4
:1000600033FCEE9DEC984005FCEE9DFE0FD5F0E9CB
:10007000E4CEFD22EDF8F5F0EE8420D21CFEADF0CA
:1000800075F008EF2FFFED33FD4007985006D5F0CF
:10009000F222C398FD0FD5F0EA22C5F0F8A3E028BC
:1000A000F0C5F0F8E582158270021583E038F02281
:1000B000EF2BFFEE3AFEED39FDEC38FC22E88FF035
:1000C000A4CC8BF0A42CFCE98EF0A42CFC8AF0EDDF
:1000D000A42CFCEA8EF0A4CDA8F08BF0A42DCC3893
:1000E00025F0FDE98FF0A42CCD35F0FCEB8EF0A4CB
:1000F000FEA9F0EB8FF0A4CFC5F02ECD39FEE43C85
:10010000FCEAA42DCE35F0FDE43CFC2275F0087528
:100110008200EF2FFFEE33FECD33CDCC33CCC58242
:1001200033C5829BED9AEC99E58298400CF582EEFE
:100130009BFEED9AFDEC99FC0FD5F0D6E4CEFBE4E6
:10014000CDFAE4CCF9A88222B800C1B90059BA00AE
:100150002DEC8BF084CFCECDFCE5F0CBF97818EF09
:100160002FFFEE33FEED33FDEC33FCEB33FB10D70A
:1001700003994004EB99FB0FD8E5E4F9FA227818CB
:10018000EF2FFFEE33FEED33FDEC33FCC933C91026
:10019000D7059BE99A4007EC9BFCE99AF90FD8E058
:1001A000E4C9FAE4CCFB2275F010EF2FFFEE33FE2A
:1001B000ED33FDCC33CCC833C810D7079BEC9AE89D
:1001C00099400AED9BFDEC9AFCE899F80FD5F0DA1E
:1001D000E4CDFBE4CCFAE4C8F922EF4BFFEE4AFE93
:1001E000ED49FDEC48FC22E8600FECC313FCED1375
:1001F000FDEE13FEEF13FFD8F122E8600FEFC333DB
:10020000FFEE33FEED33FDEC33FCD8F122E0FCA32E
:10021000E0FDA3E0FEA3E0FF22E0F8A3E0F9A3E005
:10022000FAA3E0FB22ECF0A3EDF0A3EEF0A3EFF0D5
:1002300022E0FBA3E0FAA3E0F922EBF0A3EAF0A3AB
:10024000E9F022E493FB740193FA740293F922D04B
:1002500083D082F8E4937012740193700DA3A3937A
:10026000F8740193F5828883E4737402936860EFF5
:10027000A3A3A380DFE50C2582F582E50B3583F58A
:1002800083B50B0485820C2210AF0685820CF50B1A
:100290002285820CF50BD2AF22EC8EF0A4CCC5F0F7
:1002A000CCCDF8EFA4CEC5F02DFDE43CFCE8A42EA7
:1002B000C8C5F03DFDE43CFCEFA4FFE5F028FEE4FA
:1002C0003DFDE43CFC22E709F608DFFA8046E70939
:1002D000F208DFFA803E88828C83E709F0A3DFFA18
:1002E0008032E309F608DFFA806EE309F208DFFAEC
:1002F000806688828C83E309F0A3DFFA805A8982C2
:100300008A83E0A3F608DFFA804E89828A83E0A31D
:10031000F208DFFA804280D280FA80C680D480550D
:1003200080F28029801080A680EA809A80A880DAF6
:1003300080E280CA802988848C8589828A83E493BC
:10034000A30586F0A30586DFF5DEF3800B89828A9C
:1003500083E493A3F608DFF9ECFAA9F0EDFB228819
:10036000848C8589828A83E0A30586F0A30586DFD5
:10037000F6DEF480E389828A83E493A3F208DFF94E
:1003800080D688F0EF60010E4E60CD88F0ED24023B
:10039000B4040050C3F582EB2402B4040050B92326
:1003A000234582239003167390480074F1F01206DF
:1003B000D490480074B1F07B007A4679E8120CF6CC
:1003C000EF4405FD7B007A4679E8120D02750A00BC
:1003D000E50AC39409503AAF0AEF75F005A4244E1C
:1003E000F582E4340DF583AF82AE838E088F09AEBB
:1003F00008AF098F828E83120243AE08AF098F8245
:100400008E83740393FC740493FD120C92050A808E
:10041000BF7B087A007900120BC57B017A50790303
:10042000120CF6EF4402FD7B017A507903120D02A3
:100430007B017A507913120CF6EF4402FD7B017AAE
:10044000507913120D029043A0E0FFEF4440FF905B
:1004500043A0EFF09043C2E0FFEF4410FF9043C28F
:10046000EFF07B087A007964C003C002C0017B0012
:100470007A51791290005412023AD001D002D0037E
:100480007F087E00120B617B087A00796CC003C084
:1004900002C0017B007A51792290005412023AD0B6
:1004A00001D002D0037F087E00120B61904322E04E
:1004B000FFEF4408FF904322EFF09046ECE0FFEF9F
:1004C000C394055006904689743AF0120B2B7B00BA
:1004D0007A4379A0C003C002C0017B007A4379B09F
:1004E00090005412023AD001D002D0037F0E7E0059
:1004F000120B619043B0E0FFEF54FDFFEFF022904C
:100500000051EFF0900052EDF0900053EBF09000AE
:1005100054E0FF7E007C007D05120045900056EF00
:10052000F0900054E0FF7E007C007D05120045AF96
:1005300005900057EFF0900053E0FF900056E0FE6A
:10054000EEC39F400A900053E0FF900056EFF090FA
:100550000051E0FF900052E0FD120920900055E4A8
:10056000F0900056E0FF900055E0FEEEC39F500D66
:100570007F05120AA9900055E004F080E490005332
:10058000E0FF900056E0FEEEC39F505D900057E004
:10059000FF120AA9900053E0FF7E00EF24FFFFEE58
:1005A00034FFFE900056E0FD7C00C3ED9FEC9E50B2
:1005B00038900055E4F0900056E0FF900053E0FEC4
:1005C000C3EE9FFF7E00EF24FFFFEE34FFFE90009E
:1005D00055E0FD7C00C3ED9FEC9E500D7F00120A9C
:1005E000A9900055E004F080CD2275930078007545
:1005F00083467582E8E04401F0009046ECE0F99013
:1006000046FAE0FAB903225420B40012B8001AEAFC
:10061000901FFFF07401901FFEF09046F6F0901FBF
:10062000FEE06005901FFFE0FA9048007440F0750E
:10063000810C90000078007920E4F0A3D8FCD9FA6E
:10064000EA90004AF0020011750B1F750CFD1203B1
:10065000A802068F0207A8E493A3F8E493A340033B
:10066000F68001F208DFF48029E493A3F85407240C
:100670000CC8C333C4540F4420C8834004F45680CC
:100680000146F6DFE4800B01020408102040809050
:100690000C3BE47E019360BCA3FF543F30E509545A
:1006A0001FFEE493A360010ECF54C025E060A84074
:1006B000B8E493A3FAE493A3F8E493A3C8C582C86B
:1006C000CAC583CAF0A3C8C582C8CAC583CADFE940
:1006D000DEE780BE9043007402F09040007408F0A2
:1006E0009042007403F07B0C7A017908120CF690AA
:1006F00046A1EFF07B007A4279227D087C00120C43
:10070000CF7B007A4279207D517C10120CCF900073
:1007100053E4F07F197E007D007C0090004F1202B0
:100720002590004F12020DD3EF9400EE9400404E3E
:10073000900053E0FFEF64036044904225E0FFEF38
:100740005401FF7E00900053E0FEEE25E0FEEE4FE8
:10075000FFEF5403FF900053EFF07F787E007D00A1
:100760007C00120C0090004F12020D7BFF7AFF7983
:10077000FF78FF1200B090004F12022580A37B008B
:100780007A4079047D007C01120CCF9040047407FC
:10079000F0904006E4F09040087448F0904004E483
:1007A000F09040017402F022900050E4F0120CAB83
:1007B0007D007F001209207BFF7A0C79C01209CBE3
:1007C0007F027E007D007C001208BA90004FE0FF9F
:1007D000EF6020900050E004F0900050E0FFD3EF75
:1007E000648094C1402C90004FE4F0900050E014DD
:1007F000F0801F900050E014F0900050E0FFD3EF25
:1008000064809480500C90004F7401F0900050E090
:1008100004F07D007F01120920900050E0FF120CCF
:1008200067900050E0FF900054EFF07B0D7D037F58
:10083000011204FF808A227F287E007D007C001246
:1008400008BA7F03120A197F057E007D007C001222
:1008500008BA7F03120A197F0F7E007D007C001208
:1008600008BA7F03120A197F017E007D007C001206
:1008700008BA7F02120A197F057E007D007C0012F3
:1008800008BA7F06120AEA7F0E120AEA7F2C120AC1
:10089000EA7F08120AEA7F01120AEA7F0C120AEACA
:1008A0007F03120AEA7F057E007D007C001208BAF1
:1008B0007BFF7A0D790E120A622290FFFC120275FC
:1008C000120225850B83850C8212020DD3EF940052
:1008D000EE9480402F90004B12020D120C00850BFD
:1008E00083850C82C083C08212020DEF2400FFEECC
:1008F0003480FEED34FFFDEC34FFFCD082D0831257
:10090000022580BF90004112020D850B83850C8269
:100910001202191200BD120C00900004120275227E
:10092000900058EFF0900059EDF0900058E0FFEF84
:1009300012024F094300095001095D02096A0300D0
:10094000000976900059E0FFEF2480FF120AEA22A6
:10095000900059E0FFEF24C0FF120AEA22900059EC
:10096000E0FFEF2494FF120AEA22900059E0FFEF23
:1009700024D4FF120AEA2290005AEFF0906479E042
:10098000FFEF4420FFEFF0906479E0FFEF54BFFFEA
:10099000EFF0906479E0FFEF54F0FFEFF0906479AE
:1009A000C083C082E0FF90005AE0FEEE4410FEEFEC
:1009B0004EFFD082D083EFF07F017E00120B989023
:1009C0006479E0FFEF54EFFFEFF022900051120244
:1009D0003A9000547401F090005112023112001A42
:1009E000FF900055EFF0900055E0FFEF602A900077
:1009F00055E0FF120AA9900051120231900054E014
:100A0000FFE92FF9E43AFA12001AFF900055EFF0CF
:100A1000900054E004F080CE2290005CEFF09064EF
:100A200079E0FFEF549FFFEFF0906479E0FFEF541F
:100A3000F0FFEFF0906479C083C082E0FF90005C2B
:100A4000E0FEEE4410FEEF4EFFD082D083EFF07F49
:100A5000017E00120B98906479E0FFEF54EFFFEFF6
:100A6000F02290005112023A120CEA7F40120AEA78
:100A7000900054E4F0900054E0FFEFC39440502005
:100A8000900051120231900054E0FFE92FF9E43A4E
:100A9000FA12001AFF120AA9900054E004F080D55F
:100AA000120CEA7F80120AEA22900058EFF09000C0
:100AB00058E0FFEFC4540FFF900059EFF090005939
:100AC000E0FF1209777F647E00120B98900058E0D7
:100AD000FFEF540FFF900059EFF0900059E0FF1224
:100AE00009777F967E00120B982290005AEFF090C3
:100AF000005AE0FFEFC4540FFF90005BEFF090004E
:100B00005BE0FF120A197F647E00120B9890005A76
:100B1000E0FFEF540FFF90005BEFF090005BE0FF11
:100B2000120A197FC47E09120B98227B0C7A017974
:100B3000CF120CF690004FEFF090004FE0FFEF5413
:100B400007FF90586EEFF090004FE0FFEFC4540F96
:100B5000FFEF540FFF90586FEFF09058767444F009
:100B600022758600EF4E6027EF60010E75930090AE
:100B70000054E0F595A3E0F585A3E0F5848B938A16
:100B8000838982E0A30586F0A31586DFF6DEF4E410
:050B9000F593F595222C
:100B9800EEFA900045E0F88FF0A4FFAEF0E88AF096
:100BA800A42EFEE5F03400FDEF24C9FF78FFEE38EF
:100BB800FEED38FDE438FC5003020C0022ACEAAD2F
:100BC800A08B938A838982E0F96017A3E0F5EAA3F2
:100BD800E0F5A0A3E060F4FAA3E0F8A3E0F2DAF805
:100BE800D9E98DA08CEAE4F59322900052EFF090B9
:100BF8000052E0FF120AA922EC4D4E700D78FCEF6E
:100C080024E950032840FD2200007BF178DA000037
:100C1800EF28FF78FFEE38FEED38FDEC38FC50E7A2
:100C2800EF2BFFEE38FEED38FDEC38FC40F22205E4
:100C38000203044100630041006200440046016E63
:100C4800360044004100005DC04100451844004B97
:100C58002EE0000043005D000000410064000090A9
:100C68000051EFF0900051E0FFEFC4540FFFEF90F8
:100C78000D7B93FF120BF2900051E0FFEF540FFF32
:100C8800EF900D7B93FF120BF222EC4D6011ED609B
:100C9800010C8B938A838982E4F0A3DDFCDCFA756E
:100CA800930022900062E0FFEF700912083790006D
:100CB800627401F0120CDE224D756C74692D506F50
:100CC8007274204C4344008B938A838982EDF0A38D
:100CD800ECF0759300227F0C120AEA90006374010D
:100CE800F0227F017E007D007C001208BA228B93DF
:100CF8008A838982E0759300FF228B938A83898295
:100D0800EDF07593002200000000000000001010B4
:100D180010101010101018181818181818181C1C73
:100D28001C1C1C1C1C1C1E1E1E1E1E1E1E1E1F1FE5
:100D38001F1F1F1F1F1F00000000000000000000F1
:100D48000000000000000051000010005130004079
:100D58000051C000100051F0001001000010000107
:100D6800140008000140000A00014C000200015074
:100D78000000203031323334353637383941424378
:030D880044454699
:00000001FF
