:4000000000800020110000008D0500008D05000008B5044B1A6803F53F5302331A6000F0BDFA00BFFA46004010B5054C237833B9044B13B10448AFF300800123237010BD9C
:400040005881FF1F00000000100D0000084B10B51BB108490848AFF300800848036803B910BD074B002BFBD0BDE81040184700BF000000005C81FF1F100D0000C880FF1FA8
:4000800000000000024A1368013B1360704700BF7481FF1F10B500F087FC784C206000F07BFC774B186000F06FFC764B186000F063FC754B1860236853B9714A12683AB94A
:4000C000704A126822B918B9704AD178704A11715BB96B4A126842B96A4A12682AB9012803D16A4AD1796A4A11715BB9644A126842B9644A1268012A04D118B9634A5178BB
:40010000634A117163B95E4A12684AB95D4A1268012A05D1012803D15C4A51795C4A11715BB9574A1268012A07D1564A126822B918B9564AD17A564A117163B9504A126863
:40014000012A08D14F4A12682AB9012803D14F4AD17B4F4A117163B9494A1268012A08D1484A1268012A04D118B9484A517A484A11716BB9424A1268012A09D1414A1268D9
:40018000012A05D1012803D1404A517B404A1171012B0AD13A4A12683AB93A4A126822B918B93A4A91783A4A1171012B0BD1344A126842B9334A12682AB9012803D1334A5B
:4001C0009179334A1171012B0BD12D4A126842B92C4A1268012A04D118B92C4A11782C4A1171012B0CD1264A12684AB9254A1268012A05D1012803D1244A1179244A117185
:40020000012B0BD11E4A1268012A07D11D4A126822B918B91D4A917A1D4A1171012B0CD1174A1268012A08D1164A12682AB9012803D1164A917B164A1171012B0CD1104A96
:400240001268012A08D10F4A1268012A04D118B90E4A117A0E4A1171012B0DD1084B1B68012B09D1074B1B68012B05D1012803D1064B1A7B064B1A7110BD00BF8C81FF1F6C
:400280009081FF1F8481FF1F8881FF1FCC80FF1F7481FF1F08B5FFF7FDFE184B1B79A3F14102D2B2032A11D92A2B0FD0232B0DD0124A9268032A06DC114911440B7401320C
:4002C0000E498A6002E000210C4A9160422B08D10B4A2021117451749174D1740021074A9160412B09D1074800F03EFC034B186000F0F2FB012000F075FA08BD7481FF1FE6
:40030000CC80FF1FDC80FF1F08B562B600F07CFB00F0B4FA154800F069FB154800F004FC144B1B79412B0DD00021084600F0B4FA114800F049FA0021012000F0ADFA0F48FC
:4003400000F042FA0B4B1B79412BE9D10021084600F0A2FA0A4800F037FA0521012000F09BFA044B188800F0B5FAD9E795020000850000007481FF1F140D0000DC80FF1FEF
:40038000240D0000FEE700BFF0B40022174611E050F82760F3B226F0FF0608E001EB420511F812406D78A5550132013BDBB2002BF4D101370C2FEBD9F0BC7047064B1B7806
:4003C000DBB203F00701054A11701B09013213704422034B1A707047CF0100496E5800407658004008B50A46002100F0F8FB08BD38B545F6BF52244B1A80182202331A7098
:40040000022203F27E231A7008224FF040231A70032103F5007319701C4B1B78DBB21C490B701C4B1A8041F25122023B1A80002419250CE0184B1B7803F0010343EA440475
:4004400004F003044FF4F07000F07EFB013D0DB1032CEFD115B90320FFF794FF0F4B4FF480721A8007221A7000220D490A704820023108701A700222033B1A70094A1378DB
:4004800043F00103137038BD8040004008010049A146004022420040254200400440004006400040A243004008B500F08DFB08BD38B572B6284A137843F0040313700024AD
:4004C0000CE0264D630019194A0011462A44084691882858FFF786FF0134E4B2082CF0D91F494FF09040FFF74FFF1E4A137843F0020313701032137843F0020313701A4C78
:40050000237843F040032370A2F58632513A137843F010031370082214491548FFF7C4FF0A2214491448FFF7BFFF144A137843F008031370124D61232B70FFF759FF812399
:400540002B7001220F4B1A70FFF738FF0E2221460D48FFF7A9FF38BDE8460040340D00003400004803500140A043004074000048025100407C0000481051004022430040F2
:400580000048004004000840B043004008B500F0EFFA03680C2B00D1FEE7FEE708B5104E104D16E029686B68AC68002204E051F8040B43F8040B0432A242F8D1E86800227E
:4005C00003E0002143F8041B04328242F9D11035013E002EE6D100F0D1FAFFF795FEFEE701000000940E000008B5104A104B1A60104A136843F40073136000230AE0032B8B
:4006000003D80D4A52F8231000E00C490C4A42F8231001332F2BF2D90A4B1A780A4B1A70074A0A4B1A60FFF743FF08BD0004FA050CED00E014ED00E0000000008D05000088
:400640000080FF1FBC760040C080FF1F08ED00E010B50C4C237803F03F032370237803F0E103237023784000C0B2184340F020002070012000F076F9237803F0DF032370A7
:4006800010BD00BF0051004038B505460F4C237843F040032370237803F07F032370002000F060F9237803F0E103237023786D00EDB21D4345F020052570012000F052F983
:4006C000237803F0DF03237038BD00BF0051004070B5344B1A7802F001021A7032490A7802F0E10242F01E020A7001310A7802F0E1020A7001310A7802F0E1020A701A78C7
:4007000002F0BF021A701A7842F080021A704FF4CA76002000F026F9224D2B7843F020032B70012000F01EF9204B1C78E4B22B7803F0DF032B70002000F014F904F0100402
:40074000E4B22B7843F020032B70012000F00AF92B7803F0DF032B7014B90A2000F002F9013E0CB1002ED4D10E4B1A7802F07F021A701A7802F001021A700B4A137803F0AB
:40078000E10313700132137803F0E10343F01E0313700132137803F0E10343F01E03137070BD00BF00510040025100400151004010B50446FFF78CFF2009FFF765FF04F051
:4007C0000F00FFF761FF10BD38B505460078012404E0FFF7EDFF285D0134E4B20028F8D138BD00BF10B50446FFF772FF2009FFF72FFF04F00F00FFF72BFF10BD08B528207F
:4008000000F09AF80320FFF723FF052000F094F80320FFF71DFF0F2000F08EF80320FFF717FF012000F088F80220FFF711FF052000F082F80620FFF7D5FF0E20FFF7D2FF24
:400840002C20FFF7CFFF0820FFF7CCFF0120FFF7C9FF0C20FFF7C6FF0320FFF7C3FF052000F06AF808BD00BF08B50C20FFF7BAFF0122014B1A7008BD8081FF1F08B5054B61
:400880005B7823B9FFF7BAFF0122024B5A70FFF7EBFF08BD8081FF1F08B5032819D8DFE800F002070D1381F08000FFF79BFF08BDA1F14000C0B2FFF795FF08BDA1F16C004C
:4008C000C0B2FFF78FFF08BDA1F12C00C0B2FFF789FF08BD10B584B000238DF80E30092211E0144BA3FB0013DB081C4603EB83035900431ADBB2303304A9114401F80C3C1D
:400900002046013AD2B20928EBD80A4BA3FB0013DB0803EB83035900431ADBB2303304A9114401F80C3C01AB9818FFF74DFF04B010BD00BFCDCCCCCC10B5044605E0084B02
:40094000186800F001F9A4F50044B4F5004FF6D8034B586800FB04F000F0F6F810BD00BFE080FF1F08B5034B1B7A00FB03F000F0EBF808BDE080FF1F024B187800F0010013
:40098000704700BF01510040024B1878C0F38010704700BF11510040024B1878C0F30010704700BF11510040024B1878C0F38000704700BF11510040014B1B681864704715
:4009C00008ED00E04001C0B2014B1870704700BF00E400E00122014B1A60704700E100E00122014B1A60704780E100E010B50446FFF7F6FF2046FFF7DFFF0720FFF7E2FFED
:400A0000FFF7E8FF10BD00BF054A137843F0010313701032137843F001031370704700BFA2430040084A137843F0010313701032137843F00103137002F64D32137843F044
:400A400001031370704700BFA3430040014B1870704700BF034F0040014B1880704700BF044F0040014B1880704700BF064F004008B5164A137803F00103137002321378BA
:400A800003F0FC031370124B1A7802F0CF021A701A7842F030021A701A7802F0F0021A701A7842F00F021A700A4A137843F00103137040F2E730FFF7CFFF40F2E730FFF7C1
:400AC000D1FF0020FFF7C2FF08BD00BF004F00400B4F0040014F004008B5054B1B7823B9FFF7C6FF0122024B1A70FFF79BFF08BD8281FF1F014B1B685864704708ED00E054
:400B00004001C0B2014B1870704700BF01E400E00222014B1A60704700E100E00222014B1A60704780E100E010B50446FFF7F6FF2046FFF7DFFF0720FFF7E2FFFFF7E8FFA0
:400B400010BD00BF000000000230800803D000BF01380046FCD17047EFF3108072B6704780F31088704700BF0A22002100F0C6B8014B1868704700BF5081FF1F0E4B70B55E
:400B80001E460E4C0025E41AA410A54204D056F8253098470135F8E700F06AF9084B094C1E46E41AA4100025A54204D056F8253098470135F8E770BD7C0E00007C0E000085
:400BC0007C0E0000840E000010B5431E0A44914204D011F8014B03F8014FF8E710BD03460244934202D003F8011BFAE7704700002DE9F0470F4680463F48D0F800903D46C3
:400C000015F8014B09EB0400407800F0080000F0FF0608B12F46F2E72D2C03D1BD1C7C78012603E02B2C04BF7C78BD1C13B1102B0AD15BE0302C57D1287800F0DF00582844
:400C40004DD16C7810230235002E14BF4FF0004C6FF0004CBCFBF3FA0027384603FB1ACC09EB040E9EF801E01EF0040F01D0303C0BE01EF0030E1BD0BEF1010F0CBF4FF00B
:400C8000370E4FF0570ECEEB0404A34210DDB7F1FF3F0AD0504506D801D1644503DC03FB0040012701E04FF0FF3715F8014BD7E77B1C0CD1002E4FF0220314BF4FF0004000
:400CC0006FF00040C8F800302AB9BDE8F08706B1404272B107B1691E1160BDE8F0873024002BB1D10823AFE70A23ADE7302CA3D0AAE7BDE8F08700BF5481FF1F13460A46E4
:400D0000014602480068FFF773BF00BF5081FF1F00000000496E6772657365204E756D65726F0000202054656D706F72697A61646F722000004F00400C0020510040500085
:400D4000C05100401000F0510040100000000140001000140140000800400140000A004C01400002005001402000430000202020202020202020282828282820202020203D
:400D800020202020202020202020202020881010101010101010101010101010100404040404040404040410101010101010414141414141010101010101010101010101F1
:400DC0000101010101010101101010101010424242424242020202020202020202020202020202020202020210101010200000000000000000000000000000000000000077
:400E000000000000000000000000000000000000000000000000000000000000000000000000000000000000000000000000000000000000000000000000000000000000B2
:400E4000000000000000000000000000000000000000000000000000000000000000000000000000000000000000000000000000F8B500BFF8BC08BC9E4670474D000000A6
:400E8000E9050000F8B500BFF8BC08BC9E46704729000000A80E0000C880FF1F900000004000000000000000000000003132334134353642373839432A302344200000002C
:400EC0000000E02EC05D00001800000000366E0100000000000000000000000000000000000000000000000000000000000000006A0D000000000000000000000000000093
:400F0000000000000000000000000000000000000000000000000000000000000000000000000000000000000000000000000000F080FF1F6C0D00000000000000000000AA
:400F40000000000000000000000000000000000000000000000000000000000000000000000000000000000000000000000000000000000000000000000000000000000071
:400F80000000000000000000000000000000000000000000000000000000000000000000000000000000000000000000000000000000000000000000000000000000000031
:400FC00000000000000000000000000000000000000000000000000000000000000000000000000000000000000000000000000000000000000000000000000000000000F1
:4010000000000000000000000000000000000000000000000000000000000000000000000000000000000000000000000000000000000000000000000000000000000000B0
:020000040003F7
:0200000480007A
:40000000014F00400414014003150140011B0140034001400241014004420140014301400348014005490140024C0140014D0140015101400A36B880BE40D804DF011F40B0
:400040008740EE01EE0133403680CC309F40A68012809F40A680C4109F4067109F40D88087109710AB40E210EE800F20C204AB10000F000001FFFE00000000002000547F80
:400080000B00000000000000000000000000000000000000000000000000000000000000000000000000000000000000000000000000000000000000000000000000000035
:4000C0000000000000000000000000000000000000000000000000000000000000000000000000000000000000000000000000000000000000000000000000000000000000
:4001000000000000000000000000000000000000000000000000000000000000000000000000000000000000000000000000000000000000000000000000000000000000BF
:40014000000000000000000000000000000000000000000000000000000000000000000000000000000000000000000000000000000000000000000000000000000000007F
:40018000000000000000000000000000000000000000000000000000000000000000000000000000000000000000000000000000000000000000000000000000000000003F
:0200000490006A
:0400000000004005B7
:0200000490105A
:04000000BC90ACAF55
:0200000490303A
:02000000284B8B
:0200000490402A
:4000000000000000000000000000000000000000000000000000000000000000000000000000000000000000000000000000000000000000000000000000000000000000C0
:400040000000000000000000000000000000000000000000000000000000000000000000000000000000000000000000000000000000000000000000000000000000000080
:400080000000000000000000000000000000000000000000000000000000000000000000000000000000000000000000000000000000000000000000000000000000000040
:4000C0000000000000000000000000000000000000000000000000000000000000000000000000000000000000000000000000000000000000000000000000000000000000
:0200000490501A
:0C00000000012E16106900012E1B38B400
:00000001FF